:020000040800F2
:10000000400400209D010008FD0F0008690D000854
:10001000F90F00080902000801160008000000009E
:10002000000000000000000000000000C1100008F7
:100030000D020008000000002D100008F510000857
:10004000B7010008B7010008B7010008B7010008B0
:10005000B7010008B7010008B7010008B7010008A0
:10006000B7010008B7010008B7010008B701000890
:10007000B7010008B7010008B7010008B701000880
:10008000B7010008B7010008B7010008B701000870
:10009000B7010008B7010008B7010008B701000860
:1000A000B7010008B7010008B7010008B701000850
:1000B000CD150008B7010008B7010008B701000816
:1000C000B7010008B7010008B7010008B701000830
:1000D000B7010008B7010008B7010008B701000820
:1000E000B7010008B7010008B7010008B701000810
:1000F000B7010008B7010008B7010008B701000800
:10010000B7010008B7010008B7010008B7010008EF
:10011000B7010008B7010008B7010008B7010008DF
:10012000B7010008B7010008B7010008B7010008CF
:10013000B7010008B7010008B7010008B7010008BF
:10014000B7010008B7010008B7010008B7010008AF
:10015000B7010008B7010008B7010008B70100089F
:10016000B7010008B7010008B7010008B70100088F
:10017000B7010008B7010008B7010008000000003F
:10018000B7010008B7010008DFF80CD000F02AF82A
:1001900000480047B1190008400400200648804785
:1001A00006480047FEE7FEE7FEE7FEE7FEE7FEE75C
:1001B000FEE7FEE7FEE7FEE76D1100088901000893
:1001C000D2B201E000F8012B491EFBD27047002299
:1001D000F6E710B513460A4604461946FFF7F0FF46
:1001E000204610BD064C074D06E0E06840F00103D4
:1001F00094E8070098471034AC42F6D3FFF7C8FFE5
:10020000B01A0008D01A0008FEE70000704700008E
:10021000EFF3108072B600BFFEE70000B0B50446F1
:1002200000F0FCF8054640F20400C2F2000000684D
:10023000611C18BF044400BF00F0F0F8401BA0424E
:10024000FAD3B0BD2DE9F04F83B00F68002F00F056
:10025000D38000F138424FEAB222019241F6000207
:10026000C4F600020723002600244FF00108904244
:1002700008BF0623009309E00F68043437FA08F238
:1002800008F1010806F1020600F0B680A8F1010AA3
:10029000012202FA0AFB17EA0B0CEDD04F68122F6D
:1002A00019D80122BA4012F0061F14D08268032325
:1002B000D1F80CE003FA06F922EA09020EFA06F573
:1002C0002A4382604268C7F3001522EA0B0205FA4E
:1002D0000AF52A43426007F00302032A08D1C26AE2
:1002E000C7F3C00522EA0B0205FA0AF52A43C262E7
:1002F000C268032303FA06F522EA05038A686FEA57
:10030000050EB2401A4347F01003122BC26011D100
:100310006FF0030202EA5A02024404F01C070F23A2
:10032000D2F8209003FA07F50B6929EA0505BB40CE
:100330002B43136202684B6802EA0E0203F00307C4
:10034000B7403A43DB00026096D541F26003C4F245
:1003500002031A6840F2004E42F001021A601A6865
:10036000C4F2010E02F001020292029A2AF0030284
:100370004FF6084A7244CFF6FF7A52F80A3004F07A
:100380000C070F25BD4023EA0509019B009D062BA4
:1003900038BF1D4605FA07F747EA090342F80A3055
:1003A000DEF800204B6842EA0C07DD0358BF22EA62
:1003B0000C07CEF80070DEF804209D0342EA0C071B
:1003C00058BF22EA0C07CEF80470DEF80820DD02E0
:1003D00042EA0C0740F20C4558BF22EA0C07CEF85F
:1003E0000870C4F201052A689B0242EA0C0758BF54
:1003F00022EA0C072F603FE703B000F000B830BCE2
:10040000BDE8C08F0069084018BF01207047000098
:100410001823002A08BF2823C150704740F2380033
:10042000C2F200000068704740F2040040F2380158
:10043000C2F20000C2F2000100680A6810440860BD
:100440007047000080B5032000F062F8002000F043
:1004500009F800281CBF012080BD00F02FF8002003
:1004600080BD0000B0B540F20401C2F2000109688D
:1004700001B3044640F20000C2F200004FF47A7269
:100480000068B2FBF1F1B0FBF1F000F069FC0F2C59
:100490004FF001050CD858B94FF0FF30214600222B
:1004A000002500F025F840F20800C2F200000460C8
:1004B0002846B0BD01252846B0BD000082B041F2FB
:1004C0005800C4F20200816841F001018160816836
:1004D00001F0010101910199016841F08051016031
:1004E000006800F080500090009802B07047000053
:1004F00070B514460D46064601F030FA29462246EC
:1005000000F07EFD0146304601F030FA70BD00007B
:1005100080B501F03DFA80BD47F20001C4F2000150
:100520000A68B0F5007F02F4C06026D1B0F5007F04
:1005300021D00868012262F34A20086040F20000DE
:10054000C2F200000068322358434DF68363C4F2C0
:100550001B33A0FB030302EB934000BF4B69421E19
:10056000824203D213F480601046F7D148694005F7
:1005700044BF0320704700207047B0F5806FFAD069
:100580000868022262F34A200860002070470000D9
:1005900047F20000C4F20000006800F4C060704739
:1005A0002DE9F04381B000287AD042F20008C4F26D
:1005B00002080446D8F800000D4600F00700884203
:1005C0000CD2D8F8000020F007002843C8F800003B
:1005D000D8F8000000F00700A84261D1207841F26D
:1005E0000809C007C4F2020950D12068810707D565
:1005F000D9F80010A26821F0F0011143C9F80010E9
:10060000D8F8001001F00701A9420CD9D8F8001061
:1006100021F007012943C8F80010D8F8001001F0B4
:100620000701A9423CD1410707D5D9F80010E2687B
:1006300021F4E0611143C9F80010000708D5D9F88A
:100640000000216920F4605040EAC100C9F80000B0
:1006500000F056F8D9F8001041F67022C1F30311EA
:10066000C0F60002515C40F2000201F01F0120FAC6
:1006700001F140F20800C2F200000068C2F200027C
:100680001160FFF7EFFE01B0BDE8F083606858B17C
:1006900002282BD003282ED159F8081C890107D431
:1006A000012001B0BDE8F08359F8081C8907F7D58F
:1006B000D9F8001021F003010843C9F80000FFF742
:1006C000ADFE064641F28837D9F80000616800F0B7
:1006D0000C00B0EB810F3FF488AFFFF79FFE801B4B
:1006E000B842F1D9032001B0BDE8F08359F8081CE5
:1006F0008903D5D5DCE759F8081C4905D0D5D7E7DB
:1007000041F20C01C4F2020151F8040C10F00C0289
:10071000086805D00C2A40D100F0030001283CD124
:1007200051F80C0C000703D4D1F88800000A02E04D
:1007300051F80C0C000941F6802300F00F00C0F6C0
:10074000000353F82030002A184618BF00200C2A56
:1007500018BF7047086800F00300022806D003287D
:1007600004BF41F20023C0F27A0303E042F20043E7
:10077000C0F2F40308680A68C0F30210C2F306224C
:10078000096801305A43B2FBF0F0C1F34161022223
:1007900002EB4101B0FBF1F07047042A07D0082AB0
:1007A0000BD141F200200023C0F27A00CFE742F2E1
:1007B00000400023C0F2F400C9E700200023C6E790
:1007C0002DE9F04381B0002800F0268241F20006B6
:1007D0000446C4F20206B068F168227800F00C0901
:1007E000D00601F003081DD42078C00700F0EF8088
:1007F000B9F1080F45D0B9F10C0F08BFB8F1030FDC
:100800003FD06568B5F5A02F00F0BC80B5F5803FFE
:1008100000F0BC80306820F480303060306820F414
:100820008020B6E0B9F1000F1CD0B9F10C0F08BF61
:10083000B8F1010F16D0A1693068002978D040F0D6
:1008400001003060FFF7EAFD054600BF3068800711
:1008500000F18080FFF7E2FD401B02284FF003000B
:10086000F4D922E23068800703D5A069002800F09F
:10087000D381206A316809070CD4D6F8941009098D
:1008800009E03068800340F1A2806068002840F0F1
:100890009E80C1E1316801F0F001884216D900F074
:1008A000C7FB002840F0B881306840F00800306095
:1008B0003068D4E9072120F0F00008433060706808
:1008C00020F47F4040EA0220706013E03168B9F103
:1008D000000F41F008013160316821F0F00141EA78
:1008E000000131607168E26921F47F4141EA02212F
:1008F000716041D0FFF704FFB16841F67022C1F387
:100900000311C0F60002515C40F2000201F01F0129
:1009100020FA01F140F20800C2F200000068C2F2C1
:1009200000021160FFF79EFD002840F0BE815BE7EA
:1009300020F001003060FFF771FD05463068800748
:100940007FF552AFFFF76AFD401B02284FF003000E
:10095000F4D9AAE1306840F0080030603068D4E98A
:10096000072120F0F00008433060706820F47F40D9
:1009700040EA0220706037E700F05AFB002840F0A0
:100980004B81B7E7306840F480203060306840F435
:1009900080303060FFF742FD002D054614D000BFC7
:1009A0003068800313D4FFF739FD401B64284FF0F3
:1009B0000300F5D979E100BFFFF730FD401B642843
:1009C0004FF0030000F2718130688003F4D4207886
:1009D00080072CD5B9F1040F1BD0B9F10C0F08BF5B
:1009E000B8F1020F15D0E1683068002900F04C81A1
:1009F00040F480703060FFF711FD05463068400517
:100A00000ED4FFF70BFD401B02284FF00300F5D971
:100A10004BE13068400503D5E068002800F0FC8019
:100A20007068216920F0F85040EA01607060207819
:100A300000075ED42078400775D4A06A002800F033
:100A40003481022840F0B980F068E16A00F00302C6
:100A50008A4240F0D780226B6FF00F0300F07001E4
:100A600003EB0212914240F0CD80616B00F4FE4234
:100A7000B2EB012F40F0C680A16B00F400320739C1
:100A800018BF01218A4240F0BD80E26B0023CFF6FF
:100A9000E07303EA025200F4C001A2F50012914291
:100AA00040F0B080216C4FF07E4202EA016100F01C
:100AB000C06001F17E41884240F0A480306880012E
:100AC00000F14981306840F080703060F06840F09B
:100AD0008070F060FFF7A2FC04463068800100F1EE
:100AE0003A81FFF79BFC001B02284FF00300F4D96A
:100AF000DBE06169D6F8940000294AD040F001009B
:100B0000C6F89400FFF78AFC054600BFD6F89400AB
:100B100080078FD4FFF782FC401B0228F6D9032000
:100B200001B0BDE8F083B06D10F0805808D1B06D11
:100B300040F08050B065B06D00F08050009000989B
:100B400047F20007C4F200073868C00511D43868BE
:100B500040F480703860FFF761FC05463868C005D6
:100B600007D4FFF75BFC401B02284FF00300F5D9C8
:100B70009BE0A568052D53D0012D57D0D6F89000E5
:100B800020F00100C6F89000D6F8900020F0040094
:100B900050E020F00100C6F89400FFF73FFC054646
:100BA000D6F8940080077FF545AFFFF737FC401B70
:100BB00002284FF00300F3D977E0B9F10C0F2BD0E6
:100BC000306820F080703060306810F0205F03D112
:100BD000F06820F00300F060F0684FF6FF71CFF688
:100BE000EE610840F060FFF719FC044630688001B0
:100BF00040F1B180FFF712FC001B03284FF0030007
:100C0000F4D352E0B9F10C0F06D0306840015CBF5C
:100C100030685FEAC0004BD5012001B0BDE8F08329
:100C2000D6F8900040F00400C6F89000D6F8900086
:100C300040F00100C6F89000FFF7F0FB002D0546DC
:100C400041F2883713D000BFD6F89000800712D445
:100C5000FFF7E4FB401BB8424FF00300F4D924E057
:100C6000FFF7DCFB401BB8424FF003001DD8D6F85D
:100C700090008007F4D4B8F1000F7FF4DEAEB06DC1
:100C800020F08050B065D8E620F480703060FFF727
:100C9000C5FB0546306840057FF5C9AEFFF7BEFBD2
:100CA000401B02284FF00300F4D901B0BDE8F083E7
:100CB000306820F080703060FFF7B0FB0546306888
:100CC000800107D5FFF7AAFB401B02284FF0030065
:100CD000F5D9EAE7F06848F28C01CFF69D1104F1EE
:100CE0002C0700EA010C8ECF6FF00F00D4E90F54EF
:100CF00000EB02100022CFF6E07241EA0C0102EA9A
:100D000005524FF07E450843A2F5001205EA04653E
:100D1000002440EA032005F17E45CFF6FE7410431F
:100D200004EA473728433843F060306840F0807069
:100D30003060F06840F08070F060FFF76FFB0446B1
:100D40003068800107D4FFF769FB001B02284FF0D1
:100D50000300F5D9A9E7002001B0BDE8F083000049
:100D600080B500F0AFF980BDFEE7000010B540F699
:100D70000004C4F6000420464FF480510022FFF71F
:100D800047FB20464FF480610122FFF741FB2046DC
:100D90004FF480610022FFF73BFB20464FF4805167
:100DA0000122FFF735FB10BD10B540F60004C4F674
:100DB000000420464FF480510122FFF729FB204612
:100DC0004FF480610122FFF723FB20464FF480613E
:100DD0000022FFF71DFB10BDF0B581B040F6000505
:100DE00004460026C4F60005002700BF28464FF43D
:100DF00080610122FFF70CFB28464FF48051FFF77A
:100E000001FB002818BF012040EA460628464FF49F
:100E100080610022FFF7FCFA072F07F10107E5D3F5
:100E200014B1FFF7A3FF01E0FFF7BEFFF0B201B07E
:100E3000F0BD000070B540F6000504460026C4F67B
:100E4000000505E06400072E06F1010628BF70BD0D
:100E5000E0B2C20928464FF48051FFF7D9FA28467C
:100E60004FF480610122FFF7D3FA28464FF48061E6
:100E70000022FFF7CDFA072EE4D128464FF4805127
:100E80000122FFF7C5FADDE710B540F60004C4F60D
:100E9000000420464FF480510122FFF7B9FA2046A2
:100EA0004FF480610122FFF7B3FA20464FF48051DE
:100EB0000022FFF7ADFA20464FF480610022FFF7D1
:100EC000A7FA10BD10B540F60004C4F60004204691
:100ED0004FF480510022FFF79BFA20464FF48061C7
:100EE0000122FFF795FA20464FF480510122FFF7C7
:100EF0008FFA10BDB0B540F60004C4F600042046D9
:100F00004FF480510122FFF783FA20464FF48061AD
:100F10000122FFF77DFA20464FF48051FFF772FA65
:100F20000546002820464FF480614FF0000218BFAC
:100F30000125FFF76DFA2846B0BD00002DE9F04706
:100F400086B0002741F24C000597CDE90377CDE943
:100F50000177C4F20200016840F2004941F08001CB
:100F600001600168C4F6000901F080010091009958
:100F7000016809F5806541F0010101600168002206
:100F800001F001010091009901684FF4A05641F071
:100F900004010160016801F00401009100990168F9
:100FA00041F00201016000684FF4A05100F002001E
:100FB000009000982846FFF72BFA48464FF44071FE
:100FC00000224FF44078FFF723FA019601AE4FF06C
:100FD000110A022428463146CDE902A70494FFF7FE
:100FE00031F948463146CDE9018ACDE90374FFF76E
:100FF00029F906B0BDE8F087FEE70000FEE7000033
:1010000000F0070080F00703042B28BF04234FF0F3
:10101000FF3C03380CFA03F338BF002099438140AA
:101020000CFA00F022EA0000084370477047000005
:10103000B0B582B041F25805C4F2020529680446F1
:10104000C90015D4286840F080502860286800F056
:10105000805001900198FFF79BFA296821F0805198
:101060002960B0F5007F08D0802C0DD9032015E051
:10107000FFF78EFAB0F5007FF6D1812C0DD3012059
:10108000A02C88BF022009E0A4F17000B0FA80F023
:101090004009802C08BF022000E0002042F200013D
:1010A000C4F202010A6822F0070202440A600968D9
:1010B00001F00701081A18BF012002B0B0BD0000FE
:1010C00070470000B0B501380024B4EB106F1CBFAE
:1010D0000120B0BD4EF21005CEF2000568604FF061
:1010E000FF300F2100F042FC0720AC602860204652
:1010F000B0BD000080B5FFF797F980BDB0B596B0E0
:1011000005AC20464421FFF762F810200025059029
:1011100001206021CDE90B050D910221CDE90F10D1
:101120001190282012900720CDE913012046049544
:10113000CDE90255CDE900551591FFF741FB98B96E
:101140000F2000900320CDE9010568460421CDE978
:101150000355FFF725FA38B94FF40070FFF7DCF9B3
:10116000002804BF16B0B0BDFFF752F84EF6885005
:10117000CEF2000001684FF0000C41F470010160F4
:1011800041F20001C4F202010A6842F001020A6061
:10119000C1F808C00B684FF6FF72CEF6F6221A406F
:1011A0000A604FF48052CA600A6822F480220A6002
:1011B000C1F818C04FF0006140F8801C7047000073
:1011C00010B582B001200DF107048DF80700002052
:1011D0002146012200F0D4F903208DF807000020F9
:1011E0002146012200F0CCF90320FFF717F802B0E6
:1011F00010BD000080B582B00021ADF806100DF1E1
:101200000601022200F084F9BDF8060002B080BD9C
:10121000F0B581B00646012014460D468DF8030056
:101220000DF10301132001221F4600F071F99DF812
:101230000300C00702D1002001B0F0BD1420FFF769
:10124000D9FF38801620FFF7D5FF30801820FFF730
:10125000D1FF28801A20FFF7CDFF2080012001B0A8
:10126000F0BD000010B540F20044C4F60004204672
:101270004FF400710022FFF7CBF820464FF4807145
:101280000022FFF7C5F800F0A3F920464FF40071E3
:101290000122FFF7BDF800F09BF920464FF40071E2
:1012A0000022FFF7B5F810BD10B540F20044C4F6B7
:1012B000000420464FF400710022FFF7A9F82046F1
:1012C0004FF480710122FFF7A3F800F081F9204666
:1012D0004FF400710122FFF79BF800F079F92046E6
:1012E0004FF400710022FFF793F810BDF0B581B004
:1012F0001C4615460E46074600F07AF87800013085
:10130000C0B200F047F800F0B7F85DB1013E6D42A1
:10131000B5F1FF3018BF012000F00AF8013506F8DA
:10132000010FF5D3012C08BF00F084F801B0F0BD27
:10133000F0B581B040F2004504460026C4F6000531
:10134000002700BF28464FF400710022FFF760F825
:1013500000F03EF928464FF400710122FFF758F8DB
:1013600028464FF48071FFF74DF8002818BF012080
:1013700040EA460600F02CF9072F07F10107E1D3F8
:1013800014B1FFF76FFF01E0FFF78EFFF0B201B07D
:10139000F0BD000070B540F20045C4F600050446FB
:1013A00028464FF4007100220026FFF731F800BFF5
:1013B000E0B2C20928464FF48071FFF729F86400B3
:1013C00000F006F928464FF400710122FFF720F8DB
:1013D00000F0FEF828464FF400710022FFF718F8DD
:1013E00000F0F6F8072E06F10106E1D370BD00000B
:1013F00010B540F20044C4F6000420464FF480715A
:101400000122FFF705F820464FF400710122FEF794
:10141000FFFF00F0DDF820464FF480710022FEF758
:10142000F7FF00F0D5F820464FF400710022FEF7D8
:10143000EFFF10BD10B540F20044C4F60004204692
:101440004FF400710022FEF7E3FF20464FF4807155
:101450000022FEF7DDFF00F0BBF820464FF40071DC
:101460000122FEF7D5FF20464FF480710122FEF7DE
:10147000CFFF00F0ADF810BDB0B540F20044C4F6A7
:10148000000420464FF480710122FEF7C1FF00F0F6
:101490009FF820464FF400710122FEF7B9FF00F0DB
:1014A00097F8002520464FF48071FEF7ABFF38B166
:1014B000FA2D05F10105F5D3FFF7BCFF0120B0BD02
:1014C00020464FF4007100220024FEF7A1FF2046C1
:1014D000B0BD0000F0B581B01C4615460E4607466B
:1014E000FFF786FF7800C0B2FFF754FFFFF7C4FF95
:1014F00045B1013E16F8010FFFF74CFFFFF7BCFFA7
:10150000013DF7D1012C08BFFFF794FF01B0F0BDFA
:10151000B0B582B040F0800014460D468DF807004B
:101520000DF10701292001220023FFF7D3FF292015
:10153000294622460123FFF7D9FE02B0B0BD0000C4
:1015400080B582B08DF807000DF107010F20012250
:1015500000F016F802B080BD80B582B08DF80700AB
:101560000DF107010120012200F00AF802B080BD50
:1015700080B59C20FFF7F0FF0120FFF7E1FF80BD61
:1015800080B584B0002340F080000193ADF80C30AA
:1015900002938DF8040082B14FF0010E0DF1040C9E
:1015A000012000BF0EEB010313F8013C01300CF8E1
:1015B0000E305FFA80FE9645F4D9501CC2B201A9E4
:1015C00029200123FFF786FF04B080BD704700008B
:1015D00010B5FEF723FF40F21404C2F200042060AD
:1015E000FEF71CFF40F22C01C2F2000122680860E5
:1015F00040F23401801AC2F20001086010BD000000
:10160000FEE7000080B540F20720012100F080F9DC
:101610004FF40270012100F07BF99620002100F0C8
:1016200077F99720FD2100F073F9E320002100F005
:101630006FF9E420042100F06BF9E520022100F0AD
:1016400067F9E620012100F063F9E720032100F0AB
:101650005FF9F520022100F05BF9D920052100F0A7
:1016600057F9DB20CE2100F053F9DC20032100F0F4
:101670004FF9DD20F82100F04BF99F20002100F008
:1016800047F9A3203C2100F043F9B720002100F0E6
:101690003FF9BB203C2100F03BF9B220092100F0CA
:1016A00037F9CA20092100F033F94FF4CC70012139
:1016B00000F02EF94FF4D870172100F029F940F20C
:1016C000AD10002100F024F9FF20052100F020F9E1
:1016D0004FF48070052100F01BF940F299100521AC
:1016E00000F016F94FF4D3701B2100F011F94FF4FC
:1016F000D6703E2100F00CF940F2A7101F2100F037
:1017000007F93020002100F003F91120102100F02A
:10171000FFF84FF48570302100F0FAF83F204621A1
:1017200000F0F6F83120FF2100F0F2F840206321AC
:1017300000F0EEF82E20012100F0EAF81B2009212C
:1017400000F0E6F83E20312100F0E2F814202421D8
:1017500000F0DEF8002080BDB0B50446050AFFF7B2
:1017600093FB5220FFF766FBFFF7C4FB2846FFF709
:1017700061FBFFF7BFFBE0B2FFF75CFBFFF7BAFBD3
:10178000FFF782FB5320FFF755FBFFF7B3FB002069
:10179000FFF722FB0446FFF795FB2046B0BD000093
:1017A000B0B50446050AFFF76FFB5220FFF742FB76
:1017B000FFF7A0FB2846FFF73DFBFFF79BFBE0B2DE
:1017C000FFF738FBFFF796FBFFF75EFB5320FFF7B1
:1017D00031FBFFF78FFB0120FFF7FEFA04460020E4
:1017E000FFF7FAFA40EA0424FFF76CFB2046B0BD8D
:1017F00080B50020FFF7B0FF80BD000010B52DEDD3
:10180000028B04461420FFF7A7FF4020002100F0C0
:101810007FF84120642100F07BF8072C28BF0724C3
:1018200044F040013F2000F073F83820012100F01F
:101830006FF800BF4F20FFF78FFF00F0380020281F
:10184000F8D15020FFF7ACFF00EE100A1520072159
:10185000B8EE408A00F05CF89FED1C0A04F0070027
:10186000072828EE000A27D8DFE800F004090E1345
:101870002218261DB3EE041A80EE010A1CE0B2EE17
:10188000041A80EE010A17E0B1EE041A80EE010A94
:1018900012E0B0EE041A80EE010A0DE0B7EE041A71
:1018A00080EE010A08E0B3EE041A80EE010A03E0BC
:1018B0009FED071A80EE010A9FED061A20EE010A3D
:1018C00080EE010ABDEC028B10BD00BF0AD7A33E1B
:1018D000AE47E13F0000C84210B500BF4D20FFF702
:1018E0003BFFC007FAD01820012100F011F800BF1B
:1018F0004F20FFF731FF4007FAD56220FFF72CFF9A
:1019000004461520072100F003F8204610BD000012
:10191000B0B50C460546FFF7B7FA5220FFF78AFA32
:10192000FFF7E8FA18B1FFF7CDFA0120B0BD280A99
:10193000FFF780FAFFF7DEFAE8B2FFF77BFAFFF76E
:10194000D9FA2046FFF776FAFFF7D4FA04460028C2
:1019500018BF0124FFF7B6FA2046B0BD4EF60C5072
:10196000CEF200000068C0F3022070474EF6145318
:1019700000F00F02CEF2000309011A4400F16043A7
:10198000B0F1FF3FC8BF03F564421170704700001B
:101990004EF60C51CEF200010A684FF6FF031A40D2
:1019A00060F30A2242F0806040F0FD7008607047EA
:1019B000FEF748FDFFF7A2FBFFF7C0FAFFF718FF9D
:1019C00040F22804C2F20004BE28207002D0FFF7C3
:1019D0000FFFF9E7FFF716FE40F21801C2F200010F
:1019E00008804FF47A70FEF719FCFFF7C1FDFFF78E
:1019F000E7FB40F21004C2F2000400BF12202146AF
:101A00000122FFF785FD20784428F7D140F2200419
:101A100040F2300840F21C09C2F20004C2F2000891
:101A2000C2F20009A51C261DA71D00BFFFF754FF29
:101A300088F800000120FEF7F1FB0520FFF7DEFE2D
:101A40002046294632463B4689ED000AFFF7E0FB77
:101A5000ECE702E008C8121F08C1002AFAD170475B
:101A60007047002001E001C1121F002AFBD170471E
:101A7000000000000000000001020304060708093E
:101A8000A0860100400D0300801A060000350C00FE
:101A900040420F0080841E0000093D0000127A00C1
:101AA0000024F40000366E010048E801006CDC02FE
:101AB000D01A00080000002010000000521A000890
:101AC000E01A00081000002030040000621A00082C
:101AD00000093D00010000001000000000000000AF
:040000050800018965
:00000001FF
